:020000040800F2
:10000000E00C0020C9010008D1010008D30100085C
:10001000D5010008D7010008D90100080000000040
:10002000000000000000000000000000DB010008EC
:10003000DD01000800000000DF010008E101000808
:10004000E3010008E3010008E3010008E301000800
:10005000E3010008E3010008E3010008E3010008F0
:10006000E3010008E3010008E3010008E3010008E0
:10007000E3010008E3010008E3010008E3010008D0
:10008000E3010008E3010008E3010008E3010008C0
:10009000E3010008E3010008E3010008E3010008B0
:1000A000E3010008E3010008E3010008E3010008A0
:1000B000E3010008E3010008E3010008E301000890
:1000C000E3010008E3010008E3010008E301000880
:1000D000E3010008E3010008E3010008E301000870
:1000E000E3010008E3010008E301000800F002F862
:1000F00000F05AF80AA090E8000C82448344AAF168
:100100000107DA4501D100F04FF8AFF2090EBAE865
:100110000F0013F0010F18BFFB1A43F0010318473B
:10012000401D0000601D00000A444FF0000C10F854
:10013000013B13F0070408BF10F8014B1D1108BF65
:1001400010F8015B641E05D010F8016B641E01F805
:10015000016BF9D113F0080F1EBF10F8014BAD1C55
:100160000C1B09D16D1E58BF01F801CBFAD505E073
:1001700014F8016B01F8016B6D1EF9D59142D6D3CD
:10018000704700000023002400250026103A28BFF5
:1001900078C1FBD8520728BF30C148BF0B607047F9
:1001A0001FB51FBD10B510BD00F076F81146FFF762
:1001B000F7FF00F0B9FC00F094F803B4FFF7F2FF8A
:1001C00003BC00F097F80000094880470948004741
:1001D000FEE7FEE7FEE7FEE7FEE7FEE7FEE7FEE7F7
:1001E000FEE7FEE704480549054A064B7047000054
:1001F00029080008ED000008E0060020E00C0020BF
:10020000E0080020E008002010B5203AC0F00B8084
:10021000B1E81850203AA0E81850B1E81850A0E80A
:100220001850BFF4F5AF5FEA027C24BFB1E8185064
:10023000A0E8185044BF18C918C0BDE810405FEAD4
:10024000827C24BF51F8043B40F8043B08BF704750
:10025000D20728BF31F8023B48BF11F8012B28BF55
:1002600020F8023B48BF00F8012B704770477047E9
:10027000704710B500F008F8006810BD10B50446CE
:1002800000F002F8046010BD0048704780060020AE
:1002900000487047800600207546FFF7F9FFAE461C
:1002A00005006946534620F00700854618B020B582
:1002B000FFF798FFBDE820404FF000064FF0000721
:1002C0004FF000084FF0000B21F00701AC46ACE8FE
:1002D000C009ACE8C009ACE8C009ACE8C0098D466B
:1002E000704710B50446AFF300802046BDE81040CB
:1002F000FFF763BF01491820ABBEFEE726000200EE
:10030000704700002DE9F04304460D461646DDE92E
:10031000077CCCEBCC0107FB0610014604E04FF054
:10032000000804F80180491C00F101084145F6D39A
:100330000022411C0DE003EB8308DFF83C90C84429
:1003400018F8028004F8018002F1010808F0FF02A9
:10035000491C00F10608414501D2A942EBD3811D99
:1003600004E04FF0000804F80180491C00F1070880
:100370004145F6D3BDE8F083000000203549896986
:1003800041F00801334A91611146C96941F40011F5
:10039000D1611146C96900202F49096841F07F41A8
:1003A0002D4A11602D49098821F001012B4A118045
:1003B0002A490C39098821F04001284A0C3A118059
:1003C0001146098821F0800111801146098821F029
:1003D00001011180111D098821F03F0141F0240124
:1003E000121D11801D491431098821F03F0141F08F
:1003F0000B011A4A14321180111F09884CF6FF7242
:10040000914348F21E021144144A103211801349DC
:10041000091F098848F2FF329143491C0F4A121FF5
:1004200011800E490C39098821F01A010B4A0C3A47
:1004300011801146098841F0010111801146098897
:1004400041F4806111800549098821F0FE01034AC9
:100450001180704700100240000C01400C54004015
:1004600070B504463048008820F400602E4D288086
:100470002846008840F4806028802846008840F4A0
:100480008070288000BF28481430008800F00100E8
:100490000028F8D024481430008823481030008801
:1004A00020F0FF0040EA44001F4D1035288000BFB7
:1004B0001D481430008800F002000028F8D01A48C7
:1004C0001430008818481830008817481030008809
:1004D00020F0FF000843144D1035288000BF12485B
:1004E0001430008800F080000028F8D0002012E0CE
:1004F0000D4D10352D8825F0FF05165C35430A4E4D
:100500001036358000BF084D14352D8805F0800564
:10051000002DF8D0401C9842EAD30348008840F4EC
:100520000070014D288070BD00540040002003E0A1
:100530000021034A1154401CB0F5806FF8D3704776
:1005400080020020F0B504460D461646002000212A
:10055000002215E0A0420ADBA84208DCB14206DB1B
:10056000994204DC0027DFF820C00CF802707F28D5
:1005700002DA471CF8B202E000204F1CF9B2521C0C
:10058000B2F5806FE6D3F0BD80020020F0B587B0F1
:1005900004460D4617461E461C220FA16846FFF76B
:1005A00033FE8DF806700DB1A72000E0A6208DF86F
:1005B00008008DF81160002C01DDFFF7DFFE192324
:1005C0006A4600213C20FFF74BFFFFF7AFFF00F02A
:1005D0005BF807B0F0BD0000AEC80010008100A1BC
:1005E00000A83FA4D300D550D900DA12DB208D1427
:1005F000AF0000002DE9FC4106460D46174698461F
:10060000002D10DD00240CE008EB0400C0B2CDE9A1
:100610000070335D8022D1000448FFF773FE601C38
:10062000C4B2AC42F0DBBDE8FC81000080020020D7
:10063000F0B50446402A23DA802921DA1346D71779
:1006400002EB5777C7F3C70601EBC610D71702EBCB
:100650005777FF10A2EBC707FDB204F001033BB1CF
:10066000084B1B5C0127AF403B43064F3B5406E061
:10067000044B1B5C0127AF40BB43024F3B5400BF00
:10068000F0BD00008002002010B5A2B0002426E0DA
:10069000002006E000EBC411134A515C02AA115479
:1006A000401C8028F6D311A000680190032301AA02
:1006B00000213C20FFF7D4FE0DA0006800908DF8CB
:1006C000014003236A4600213C20FFF7C9FE802336
:1006D00002AA40213C20FFF7C3FE601CC4B2082CD4
:1006E000D6DB22B010BD00008002002021007F0078
:1006F000220007000B48806940F008000949886122
:100700000948006840F0040007490860084600688E
:1007100020F0080008600846006820F00300086028
:100720007047000000100240000C014010B500F0BE
:1007300001F810BD0CB5002001900090334800680E
:1007400040F480303149086000BF3048006800F450
:10075000003000900198401C0190009818B9019851
:10076000B0F5A06FF1D12948006800F4003010B155
:100770000120009001E0002000900098012843D162
:100780002348006840F010002149086008460068CE
:1007900020F0030008600846006840F0020008608E
:1007A0001A48406819494860084640684860084649
:1007B000406840F4806048600846406820F47C103F
:1007C00048600846406840F4E81048600846006801
:1007D00040F08070086000BF0C48006800F00070B6
:1007E0000028F9D00948406820F003000749486014
:1007F0000846406840F00200486000BF0348406877
:1008000000F00C000828F9D10CBD000000100240D7
:10081000002002400348006800F0010080F0010061
:1008200070470000080C014010B51348006840F004
:1008300001001149086008464068104908400E4907
:100840004860084600680E4908400B4908600846A1
:10085000006820F4802008600846406820F4FE000C
:1008600048604FF41F008860FFF760FF4FF00060A2
:100870000449086010BD0000001002400000FFF8AD
:10088000FFFFF6FE08ED00E04100080218BF04205B
:100890000A0E18BF40F001004FF07F4232EA01011A
:1008A00008BF40F00200012808BF05207047012161
:1008B00001F087BA0021084600F066BF6FF05E01C4
:1008C000080701F07EBA00002DE9F04D0D461446F0
:1008D0004FF07F41B1EB440F9EBF4FF0FF312960D5
:1008E000BDE8F08D4FF0004040EA0421C4F3C7504A
:1008F000783810F01F024A4B4FEA601CC2F1200604
:100900007B44C4F3C750A0F178004FEA601003EBBA
:10091000800053F82C3008BFD0E901C612D0D0F8BF
:1009200004C093402CFA06F73B4387680CFA02FC9C
:1009300027FA06F8C06807FA02F2F0404CEA080C01
:1009400042EA0006A3FB0132ACFB01C0A6FB016139
:1009500001EB0C068E4234BF4FF0010C4FF0000C3F
:10096000C1186144BCF1000F02D0814202D903E0FA
:10097000814201D2012000E00020104400F1200259
:100980004FEA92188006CA0C40EA42304F03C5F87D
:10099000008000F0D7FF8246384600F0EBFF6FF092
:1009A000120101F00EFA0746304600F0E3FF6FF047
:1009B000250101F006FA83463946504600F070FEE4
:1009C000594600F06DFE00F500666FF30B065146C8
:1009D000304601F04FF9394601F04CF9594601F023
:1009E0003FF9104901F00EF807460F49304601F073
:1009F00009F8394600F054FE07460C49304601F02C
:100A000001F8394600F04CFE14F0004F08BFBDE875
:100A1000F08DC8F1805180F000402960BDE8F08D74
:100A20003C150000DB0FC92F22AAFD290000C92FA9
:100A30002DE9F041C1F30A52A2F2FF362F4A304BA2
:100A40000D460446142E2FDA002E12DA00F05EFB5B
:100A50000022134600F0CCFC4CD2002DBCBF4FF05E
:100A60000045002446DB55EA040018BF254D19D186
:100A700040E0DFF894C02CFA06F705EA070C5CEAC0
:100A8000040C08BFBDE8F08100F040FB00221346D3
:100A900000F0AEFC2ED2002D03DD4FF48010F040AC
:100AA0000544BD43002425E0332EC8BFBDE8F081D6
:100AB000A6F1140C4FF0FF3727FA0CF73C4208BFA1
:100AC000BDE8F08100F0CAFC0022134600F090FC63
:100AD00010D2002D0DDD142E08BF6D1C09D0C6F1FB
:100AE0003400012101FA00F02044A04238BF6D1CFF
:100AF0000446BC4329462046BDE8F0819C75008829
:100B00003CE4377E0000F03FFFFF0F00002107E0CC
:100B1000002201E000BF521CB2F5FA5FFAD3491C73
:100B20008142F5D37047000070B58AB0FFF7E2FD4F
:100B30006420FFF7EBFF5023FF2200210120FFF785
:100B400025FDFFF7F3FC56A207CA07AB07C357A260
:100B500007CA04AB07C3002302220C2107A8FFF732
:100B600049FD002304220C2104A8FFF743FDFFF7F1
:100B70008BFD00E000BFFFF74DFE0028FAD000E03B
:100B800000BFFFF747FE0028FAD1FFF7CFFCFFF7C1
:100B90007BFD40242025484E00231A46022147A011
:100BA000FFF728FD00200121CDE900010B46324668
:100BB00029460290204600F091F800231A460321AE
:100BC0003FA0FFF717FD012003463246294600905B
:100BD000204600F0E9F800231A46022139A0FFF769
:100BE00009FD00200321CDE90001022332462946F8
:100BF0000290204600F072F800231A46032132A02A
:100C0000FFF7F8FC032002233246294600902046D5
:100C100000F0CAF800231A4602212CA0FFF7EAFCD4
:100C200000200221CDE9000101233246294602902D
:100C3000204600F053F800231A46032124A0FFF7B2
:100C4000D9FC02200123324629460090204600F0BC
:100C5000ABF800231A4602211EA0FFF7CBFC0020B0
:100C60000521CDE9000102233246294602902046A3
:100C700000F034F800231A46032117A0FFF7BAFC4E
:100C800005200223324629460090204600F08CF8C9
:100C9000FFF74CFCFFF7F8FC00200AB070BD000025
:100CA000505245535320535441525400544F204204
:100CB0004547494E2E2E2E000000F0414C310000D9
:100CC0004C3152004C3200004C3252004C33000088
:100CD0004C3352004C3400004C3452002DE9F04F9C
:100CE00085B004460D4616461F46049403954FF002
:100CF000000800200290019043E0384600F03AFEE0
:100D00004146009000F07EFE83460E9900F0C8FC3C
:100D1000824600F037F98146314600F073FE0290BA
:100D20000F9800F027FE4146009000F06BFE8346CE
:100D3000109900F0B5FC824600F024F98146314656
:100D400000F060FE0190029800F0E2F8814600F0A9
:100D5000DDFD2044C0B20490019800F0D9F881462E
:100D600000F0D4FD2844C0B203900E49404600F084
:100D700097FC80460120DDE90321FFF759FCFFF7CE
:100D800083FCFFF747FD0028B7D0FFF7CFFBFFF745
:100D90007BFC00E000BFFFF73DFD0028FAD105B065
:100DA000BDE8F08FCDCCCC3C2DE9F04F8FB00446A0
:100DB0000D4616461F46DDF860800D940C954FF0E9
:100DC000000900200B900A90384600F0D3FD8346BE
:100DD0004C4900F017FE0990404600F0CBFD8346D9
:100DE000484900F00FFE0890474501D2394600E01F
:100DF0004146084600F0BEFD0790304600F024FC56
:100E0000CDE90001FFF714FECDE9020100F032FA4E
:100E1000201A00F0FF0A304600F016FCCDE9000170
:100E2000FFF706FECDE9020100F024FA2044C0B22B
:100E30000690002005900720049051E04FF0000B31
:100E400037E05946099800F0DDFD4946019000F071
:100E500027FC029000F096F83146039000F0D2FD96
:100E60000B905946089800F0CDFD029000F08AF8EA
:100E70003146039000F0C6FD0A900B9800F048F848
:100E8000039000F043FD2044C0B20D900A9800F09A
:100E90003FF8039000F03AFD2844C0B20C900120C6
:100EA000DDE90C21FFF7C4FB1749584600F0F8FBB9
:100EB00083464FF08040079900F066FC5946039046
:100EC00000F06CFEBDD31149484600F0E9FB8146B5
:100ED000FFF7DAFB5046DDE904320699FFF732FBF3
:100EE000FFF798FC0028A9D0FFF720FBFFF7CCFB09
:100EF00000E000BFFFF78EFC0028FAD10FB0BDE87C
:100F0000F08F0000DA0FC9400AD7A33BCDCC4C3D8F
:100F100070B5054600F074FE04460146284600F010
:100F2000A9FE15F0004F4FF07F410ED0B0F13F4FBA
:100F300028BFB1EB400F0ED2B0F17C5F1DDDB1EBED
:100F4000400F1AD313E0044617E0B0F13F4F08D921
:100F5000B1EB400F05D34FF07E51204600F08AFEE2
:100F6000F1E7B0F17C5F08DBB1EB400F05D34FF048
:100F70007E51204600F094FBE5E7284664F31E000E
:100F800070BD00002DE9F843044602465248694608
:100F9000B0EB420F09D94FF0E640B0EB420F94BFDF
:100FA00000204FF0FF30009030E04C4B22F000402A
:100FB000834271D94A49204600F024FD00F020FE0A
:100FC000804600F0A3FC00F0030000904549404635
:100FD00000F018FD05464449404600F013FD064662
:100FE0004249404600F00EFD07464149404600F0A8
:100FF00009FD214600F034FE394600F03BFE314643
:1010000000F038FE294600F035FE04462546009CD7
:10101000002C45DB294614F0010F08461ED000F0D5
:10102000F1FC0546334900F0EDFC334900F038FB94
:10103000294600F0E7FC314900F032FB294600F078
:10104000E1FC4FF07E5100F02BFB14F0020F08BFC3
:10105000BDE8F88380F00040BDE8F88300F0D2FCE2
:101060000646274900F0CEFC264900F0F9FD31463E
:1010700000F0C8FC244900F013FB314600F0C2FC2C
:10108000294600F0BFFC294600F00AFB14F0020FCD
:10109000E0D1BDE8F883FFE71046FFF715FCB4E7A1
:1010A0006800B0F17F4F09D22846FFF7EDFB042816
:1010B00008BFFFF703FC2846BDE8F88306D10120EE
:1010C000FFF7DCF8BDE8F843FFF7F4BB2846BDE8BE
:1010D000F843FFF7ECBB0000B61F927E490E49466D
:1010E00083F9223F1A61342C0020A23300A0FD397D
:1010F0000000C93FB93AB2BACA9F2A3DDDFFFFBE20
:10110000336D4C39DA82083CA0AA2ABE10B591EAA8
:10111000030F48BF83F0004300F1B481841A71EBE0
:10112000030C05D2121943EB0C03001B61EB0C01FD
:10113000DFF824E14FEA1154A4EB135C1EEA430FDD
:1011400018BF9EEA445F73D023EA0E03DCF1200E41
:1011500021EA045143F4801332D322FA0CFE10EB3F
:101160000E0023FA0CFE41EB0E01CCF1200E03FA27
:101170000EFE10EB0E0051F10001B1F5801FCCF115
:10118000200E32D201EB045112FA0EF2BDE81040EB
:1011900058BF7047401C38BF5FEA420218BF704713
:1011A000002814BF20F0010041F100014FEA410383
:1011B00013F5001F38BF7047A1F1C04100F012B90C
:1011C000012A43EB0302ACF1200CDCF11F0E32BF0D
:1011D0004FF0000E23FA0CF310EB030041EB045127
:1011E000B4EB115FD0D0A1EB045101F58011490897
:1011F0005FEA300001EB04510ED350F1000038BF1C
:1012000012FA0EFE08D1BDE81040C9E7401C38BFF5
:101210005FEA4202CAD1C3E7BDE810404FEA41038A
:1012200013F5001F38BF7047A1F1C04100F0DAB8D4
:101230009EEA445F08D011EA5E0FBDE8104004BF8B
:1012400001F0004100207047BDE8104070B500F08B
:101250007BF800BF64FBBE3E0000E0FF491058BFB2
:10126000C1F140415B1058BFC3F140438B42EFF3E3
:10127000008070474FEA1153A3F58063D3F11E033A
:10128000A8BFD3F1200C08DB4FF0004242EAC12294
:1012900052EA505232FA03F0704709420BD4102B35
:1012A000C4BF0020704703F5787CBCF1FF3F05D038
:1012B0004FF0FF3070474FF00000704770B500F0FE
:1012C00043F800BF4992248000207047F0E70000F7
:1012D00051EA030C17D41CF5801F58BFBCF5801FC2
:1012E00000F10680994218BF704708BF90427047CE
:1012F00007D711F5801F58BF13F5801F19D49942E5
:101300007047894270471CF5801F08D5BCF5801FC7
:10131000F7D58B4218BF704708BF824270474FF421
:10132000001C1CEB410F38BF1CEB430F01D28B425A
:10133000704770B500F008F8922449004FF0005152
:101340004FF08053FFF78ABF0EF1020E2EF0030E0E
:101350005EF8046B364205D4012A43EB030515F50C
:10136000001F12D8012841EB010C1CF5001F0CD8FE
:101370000ED14FEAD17C15F5001F0CEB4C0C0CF193
:10138000020C08BF4CEBD37C04E04FF0080C01E0EA
:101390004FEAD37C0CEB4C0526FA05F606F007065F
:1013A000B6F1040C06D20EEB860CBDE870404CF092
:1013B000010C6047DFE80CF0090B02024FF000411E
:1013C0004FF00000A1F5002170BD1946104601281C
:1013D00051EB010418BFD4F5001484BF002001F0C4
:1013E000004170BD0808A0F500114FEA31017047B7
:1013F00053EA010C17D41CF5801F58BFBCF5801FA1
:1014000000F106808B4218BF704708BF82427047C8
:1014100007D713F5801F58BF11F5801F19D48B42D1
:1014200070479B4270471CF5801F08D5BCF5801F94
:10143000F7D5994218BF704708BF904270474FF4E4
:10144000001C1CEB430F38BF1CEB410F01D299422B
:1014500070470FB40CBC03BCFFF76BBF91EA030FDE
:1014600010B581F000413FF559AE83F0004300F024
:1014700009B8000010B591EA030F48BF83F000439C
:101480003FF54CAE841A71EB030C07D212198CF0A5
:10149000004C43EB0C03001B61EB0C01DFF8A4E1F3
:1014A0004FEA1154A4EB135C1EEA430F18BF9EEAE7
:1014B000445F00F0B08023EA6E03524221EA0451F7
:1014C000C3EB6E0338BF5B1EDCF1200E25D322FA7E
:1014D0000CFE10EB0E0043FA0CFE41EB0E01CCF1BA
:1014E000200E03FA0EFE10EB0E0051F10001CCF1BC
:1014F000200E29D412FA0EF201EB0451BDE810407F
:1015000058BF7047401C1CBFB2F1004F7047002805
:101510000CBF491C20F00100704712EB020E43EB98
:10152000030218BF4FF0010E4EEA4202ACF1200C4C
:10153000DCF11E0E54D943FA0CFE10EB0E0051F1F3
:10154000FF31CCF11E0ED5D50EF1010E12FA0EFEB2
:10155000404141EB010101EB445C5FEA5C5C10D966
:1015600010EBDE7001EB045138BFBEF1004FBDE857
:10157000104018BF704700280CBF491C20F0010024
:10158000704730D24FEAD42C11F5001124F40064D6
:101590001BD0B1FA81F20B3AA41AA41ED2F1200397
:1015A000914030FA03F31943904001EBCC71002CC9
:1015B00001EB0451BDE81040A8BF704701F1C041E4
:1015C0004FF0000001F000417047B0FA80F310FACC
:1015D00003F100D110BDE41A173C4805C90AE4E73D
:1015E00001EB045110BD491001EB0451BDE810405E
:1015F0004FEA300002E04FF0000170474A0008BF98
:101600000042F8D0B2F5001F28BF704701F000413A
:101610004FF0000070479EEA445F07D011EA5E0F6A
:10162000BDE8104004BF002100207047BDE8104015
:1016300070B5FFF789FE00BF40DFF63E83F0004142
:10164000104670470000E0FF43004FEAD30C4FEA1A
:101650003C0C43401FBF40070CF1605113F0FE4F9C
:1016600070471CF0006F03D100200CF00041704760
:101670000CF0004343EA507010B540EACC0000F093
:1016800042FA00BF000000924FEA0001FFF7AABE35
:101690004FF000414FF00000A1F50021704700001D
:1016A00090EA010F48BF81F0004100F1EA82421A3E
:1016B0003CBF801A89184FEAD0524FF07F4C1CEA89
:1016C000410FA2EBD15318BF9CEA026F00F03B80A0
:1016D0004FF0004C4CEA00204CEA012121FA03FCB7
:1016E00010EB0C0C1ED202F1FF325FEA1C2040EB23
:1016F000C25038BF70471CF07F0F4FEA400C18BF34
:10170000BCF17F4F38BF7047C3F12003994008BF39
:1017100020F00100BCF17F4F38BF7047A0F1C040FE
:1017200000F037BA4FEA3C00000A40EBC25028BF35
:101730001CF0FF0F4FEA400CE6D018BFBCF17F4F02
:1017400038BF7047EAE79CEA026F05D010EA5C0FE9
:1017500008BF00F00040704710B500F0D4F900BF9A
:1017600064FBBE3E014800F0FABA00BF0000C07F33
:10177000401058BFC0F14040491058BFC1F140412E
:101780008142EFF3008070474FF47F0C1CEAD012C7
:101790001EBF1CEAD11392EA0C0F93EA0C0F00F063
:1017A000858090EA010F48BF42F4807240F4000C3B
:1017B00041F400002CF07F4120F07F4000B58142D1
:1017C000A2EB03020FF2081CACEB504EC0F100007C
:1017D0009EF800E04FEA4E0E00FB0EFC38BF4900B9
:1017E0004FEA2C1C02F5FA020CFB0EF34FEACE1E58
:1017F0004FEA112C4FEAC1210EEB635E42EB22420D
:101800000EFB0CFC4FEA1C5300FB03114FEA112C9A
:101810004FEA01310EFB0CFC4FEADC4C00FB0C11D3
:10182000C14228BF09184CEB03335DF804EB10EB01
:10183000410143EBC250B2F57C0F38BF704729D548
:1018400012F0F00F1CBF00F1C04000F000407047E4
:10185000008182838485868788898B8C8D8E8F9189
:101860009293959697999A9C9D9FA0A2A3A5A7A8AD
:10187000AAACAEB0B2B3B5B7B9BCBEC0C2C5C7C9D9
:10188000CCCED1D4D7D9DCDFE2E6E9ECF0F3F7FA3D
:10189000FE0000004FEA400C0CF1807CBCF17E4F52
:1018A00028BF7047B0F1C04000F073B990EA010F53
:1018B0000CEAD11348BF42F48072624538BF6345D9
:1018C00007D213F47F0F16D080EA010000F0004029
:1018D000704710B500F017F9097EFC3E00F005B81E
:1018E00080EA010000F00040704780EA010000F04B
:1018F000004000F04EB912F47F0F04BF0248704759
:1019000080EA010000F045B90000C07F41000B0EE5
:10191000D3F19E0208D950F400034FEA032323FABF
:1019200002F048BF4042704710B500F0ECF800BF2D
:1019300049922480002070476FF0004282EA200024
:101940007047000010F0004148BF4042B0FA80F3F9
:1019500010FA03F2C3F19D030BD051EAC35101EB1E
:101960001220530638BF704700F1010008BF20F075
:1019700001007047B0FA80F310FA03F2C3F19D033F
:101980000AD0D90501EB1220530638BF704700F189
:10199000010008BF20F001007047000050EA010C70
:1019A00000F113801CF5000F58BFBCF5000F01D4E7
:1019B0008842704707D710F5000F58BF11F5000F88
:1019C00015D488427047894270471CF5000F04D532
:1019D000BCF5000FF7D5814270474FF0807C1CEBBF
:1019E000400F38BF1CEB410F01D28142704710B548
:1019F00000F089F8922449004FF000504FF08051D8
:101A0000FFF7B6BE4FF47F0C1CEAD0121EBF1CEAD3
:101A1000D11392EA0C0F93EA0C0F00F0478090EA82
:101A2000010F48BF42F480724FF0004C4CEA002096
:101A30004CEA012102EB0302A0FB0113A2F5000214
:101A4000002918BF43F001035B0028BF4FEA3303AE
:101A500042EB22425FEA132C4CEBC2502EBFBCEB90
:101A6000436FB2F57C0F70474FEA036CBCF1004F37
:101A700008BF20F00100B2F57C0F38BF70470BD5CE
:101A800082F0FF0212F5803FC8BF704700F1C040EE
:101A9000D8BF00F00040704700F5000C5FEA4C0C26
:101AA00048BF7047B0F1C04000F073B890EA010F32
:101AB0000CEAD11348BF42F48072624538BF6345D7
:101AC00004D280EA010000F00040704710B500F039
:101AD0001AF800BF8900013E00F007B800F009B80D
:101AE0005FEA410C5FEA1C6C08D080EA010000F05C
:101AF00050B85FEA400C5FEA1C6CF6D14FF0004032
:101B0000A0F5800070470EF1020E2EF0030E5EF875
:101B1000044B244204D44FEA4102B2F17F4F11D862
:101B20004FEA4003B3F17F4F0CD80ED14FEAD07C7F
:101B3000B2F17F4F0CEB4C0C0CF1020C08BF4CEBDC
:101B4000D17C04E04FF0080C01E04FEAD17C0CEBB3
:101B50004C0324FA03F404F00704B4F1040C06D295
:101B60000EEB840CBDE810404CF0010C6047DFE840
:101B70000CF0070802024FF00040A0F5800010BDF5
:101B80000846420018BFD2F1807288BF00F00040C2
:101B900010BDFF2141EAD050C005704751EA000C4A
:101BA00000F113801CF5000F58BFBCF5000F01D4E5
:101BB0008142704707D711F5000F58BF10F5000F8D
:101BC00015D481427047894270471CF5000F04D537
:101BD000BCF5000FF7D5884270474FF0807C1CEBB6
:101BE000410F38BF1CEB400F01D28842704780EA9A
:101BF000010081EA000180EA0100FFF7F8BE000061
:101C00005FEA400C5FEA1C6CBCF17F0314D4D3F193
:101C1000170240F31C804FF0010C0CFA02FCACF1EF
:101C200001030340B3EB5C0220EA030008BF10EAA3
:101C30000C0F88BF60447047B3F1FF3F28BF5FEAD5
:101C4000002C00F0004088BF40F07E507047BCF18F
:101C5000FF0FB8BF704710B5FFF755FF40DBB6BEAA
:101C600080F0004090EA010F7FF521AD81F0004146
:101C700000F007B890EA010F48BF81F000413FF53E
:101C800016AD421A04D882F00042A0EB02001144C3
:101C90004FEAD0524FF07F4C1CEA410FA2EBD153D8
:101CA00018BF9CEA026F4AD04FF0004C4CEA00206B
:101CB0004CEA012121FA03FCB0EB0C0C0FD412F01A
:101CC000FE0F36D05FEA4C001DD5001240EBC2502B
:101CD00038BF70471CF03F0F18BF70470BE0A2F1F0
:101CE00001025FEA1C2040EBC25038BF70471CF075
:101CF0007F0F18BF7047C3F12003994014BF401EE7
:101D000020F00100704780084FEA122308BF704797
:101D1000B0FA80FCA2EB0C02CCF1280C60FA0CF0BB
:101D200093EA122F04BF00EBC25070474FEAC37012
:101D30007047130A5FEADC1008BF7047F6E79CEAB9
:101D4000026F04D010EA5C0F08BF0020704710B586
:101D5000FFF7D9FE40DFF63E81F0004070470CF0FF
:101D60000F03092B08BF082000F051800A2B0BD06D
:101D7000082B18BF704708BF1CF0400F0AD04FF067
:101D800000004FF0000170471CF0400F18BF4FF0EB
:101D9000004070471CF0100F08D020F0704300F096
:101DA0007F4242EAD3014FEA4370704700F060403F
:101DB00021F07F4242EA000201F07F4040EA727067
:101DC00070474FF0FF0212EAD0521CBF92F0FF039F
:101DD0008B42C2BFD14200EBC1507047002A0AD0EB
:101DE000002B0BD0002900F00040A4BF40F0FE40C3
:101DF00040F40000704700F00040704743024FF08D
:101E00000B0C18BF4CF0806C7FF4ACAC70471CF42A
:101E1000801F11D01CF4E02F03D06FEACC314900B1
:101E200070474FF04050EFF3008222F0704242EAD8
:101E3000000282F3008870474FF0000070470000F6
:101E4000000000006E83F9A22915444ED15727FCEB
:101E5000C0DD34F5999562DB4190433CAB6351FEA4
:101E6000801E0008000000208002000028010008F9
:101E70002C20000880020020600A00008401000875
:101E800001A7325E12061D06FF247E0228104C9226
:101E9000FF9264462610C8C436495121521A312394
:101EA0007E8133817E140A040A2608083E0808232E
:101EB000C060341010102240100B80601806017EA4
:101EC000A191897E1482FF801AC20A180D86428968
:101ED000898976181492FF904F0A1B717E05280895
:101EE0007203C1310D037619164E9191917E3366BE
:101EF000661AE60515102844822A28011118168250
:101F00004428100201B109067E81BDA51EFC2623CE
:101F100026FC81FF32280B7E8181814281FF8181F5
:101F20007E0F1AC305100D09037E81919172FF087F
:101F30000808FF191A198B1809817F01FF1824421C
:101F4000810E180880C0FF040804FF052B10FF3C19
:101F5000280B7EFF1111110E7E81A1C10A3C31CEEA
:101F6000469119291020037F8080807F3F40804068
:101F70003FFF402040FFC66C386CC60182FC8201E6
:101F8000E3918985C31973111601061860801957EA
:101F9000111E080402040831138080140102041881
:101FA0001160929292FCFF888888707884848448BB
:101FB000700A1BFF7C14164C88FE89011A0EE6126B
:101FC0007F19A112F02488FA802484847D1DFF20CB
:101FD0005088AF12802EF010E010E0061129371261
:101FE000701009FC242418182424FC2584F8840487
:101FF00010094C929264047E844015788080F81A0F
:1020000038A02809387880408078885041100A9C90
:10201000A0A0FC88C8A898881B087EFA1132FF147B
:0C202000817E08561008102010000000FF
:04000005080000ED02
:00000001FF
